{
  "_format": "hh-sol-artifact-1",
  "contractName": "EmojiFaces",
  "sourceName": "contracts/EmojiFaces.sol",
  "abi": [
    {
      "inputs": [],
      "stateMutability": "nonpayable",
      "type": "constructor"
    },
    {
      "anonymous": false,
      "inputs": [
        {
          "indexed": true,
          "internalType": "address",
          "name": "owner",
          "type": "address"
        },
        {
          "indexed": true,
          "internalType": "address",
          "name": "approved",
          "type": "address"
        },
        {
          "indexed": true,
          "internalType": "uint256",
          "name": "tokenId",
          "type": "uint256"
        }
      ],
      "name": "Approval",
      "type": "event"
    },
    {
      "anonymous": false,
      "inputs": [
        {
          "indexed": true,
          "internalType": "address",
          "name": "owner",
          "type": "address"
        },
        {
          "indexed": true,
          "internalType": "address",
          "name": "operator",
          "type": "address"
        },
        {
          "indexed": false,
          "internalType": "bool",
          "name": "approved",
          "type": "bool"
        }
      ],
      "name": "ApprovalForAll",
      "type": "event"
    },
    {
      "anonymous": false,
      "inputs": [
        {
          "indexed": false,
          "internalType": "uint256",
          "name": "tokenId",
          "type": "uint256"
        },
        {
          "indexed": false,
          "internalType": "address",
          "name": "owner",
          "type": "address"
        }
      ],
      "name": "EmojiMinted",
      "type": "event"
    },
    {
      "anonymous": false,
      "inputs": [
        {
          "indexed": true,
          "internalType": "address",
          "name": "previousOwner",
          "type": "address"
        },
        {
          "indexed": true,
          "internalType": "address",
          "name": "newOwner",
          "type": "address"
        }
      ],
      "name": "OwnershipTransferred",
      "type": "event"
    },
    {
      "anonymous": false,
      "inputs": [
        {
          "indexed": true,
          "internalType": "address",
          "name": "from",
          "type": "address"
        },
        {
          "indexed": true,
          "internalType": "address",
          "name": "to",
          "type": "address"
        },
        {
          "indexed": true,
          "internalType": "uint256",
          "name": "tokenId",
          "type": "uint256"
        }
      ],
      "name": "Transfer",
      "type": "event"
    },
    {
      "inputs": [],
      "name": "MAX_TOKENS",
      "outputs": [
        {
          "internalType": "uint256",
          "name": "",
          "type": "uint256"
        }
      ],
      "stateMutability": "view",
      "type": "function"
    },
    {
      "inputs": [
        {
          "internalType": "address[]",
          "name": "addresses",
          "type": "address[]"
        }
      ],
      "name": "addToPresaleList",
      "outputs": [],
      "stateMutability": "nonpayable",
      "type": "function"
    },
    {
      "inputs": [
        {
          "internalType": "address",
          "name": "to",
          "type": "address"
        },
        {
          "internalType": "uint256",
          "name": "tokenId",
          "type": "uint256"
        }
      ],
      "name": "approve",
      "outputs": [],
      "stateMutability": "nonpayable",
      "type": "function"
    },
    {
      "inputs": [
        {
          "internalType": "address",
          "name": "owner",
          "type": "address"
        }
      ],
      "name": "balanceOf",
      "outputs": [
        {
          "internalType": "uint256",
          "name": "",
          "type": "uint256"
        }
      ],
      "stateMutability": "view",
      "type": "function"
    },
    {
      "inputs": [],
      "name": "baseURI",
      "outputs": [
        {
          "internalType": "string",
          "name": "",
          "type": "string"
        }
      ],
      "stateMutability": "view",
      "type": "function"
    },
    {
      "inputs": [],
      "name": "devReserve",
      "outputs": [
        {
          "internalType": "uint256",
          "name": "",
          "type": "uint256"
        }
      ],
      "stateMutability": "view",
      "type": "function"
    },
    {
      "inputs": [
        {
          "internalType": "uint256",
          "name": "tokenId",
          "type": "uint256"
        }
      ],
      "name": "getApproved",
      "outputs": [
        {
          "internalType": "address",
          "name": "",
          "type": "address"
        }
      ],
      "stateMutability": "view",
      "type": "function"
    },
    {
      "inputs": [
        {
          "internalType": "address",
          "name": "owner",
          "type": "address"
        },
        {
          "internalType": "address",
          "name": "operator",
          "type": "address"
        }
      ],
      "name": "isApprovedForAll",
      "outputs": [
        {
          "internalType": "bool",
          "name": "",
          "type": "bool"
        }
      ],
      "stateMutability": "view",
      "type": "function"
    },
    {
      "inputs": [],
      "name": "isRevealed",
      "outputs": [
        {
          "internalType": "bool",
          "name": "",
          "type": "bool"
        }
      ],
      "stateMutability": "view",
      "type": "function"
    },
    {
      "inputs": [],
      "name": "maxTokenPurchase",
      "outputs": [
        {
          "internalType": "uint256",
          "name": "",
          "type": "uint256"
        }
      ],
      "stateMutability": "view",
      "type": "function"
    },
    {
      "inputs": [
        {
          "internalType": "uint256",
          "name": "numberOfTokens",
          "type": "uint256"
        }
      ],
      "name": "mintEmoji",
      "outputs": [],
      "stateMutability": "payable",
      "type": "function"
    },
    {
      "inputs": [],
      "name": "name",
      "outputs": [
        {
          "internalType": "string",
          "name": "",
          "type": "string"
        }
      ],
      "stateMutability": "view",
      "type": "function"
    },
    {
      "inputs": [
        {
          "internalType": "address",
          "name": "addr",
          "type": "address"
        }
      ],
      "name": "onPreSaleList",
      "outputs": [
        {
          "internalType": "bool",
          "name": "",
          "type": "bool"
        }
      ],
      "stateMutability": "view",
      "type": "function"
    },
    {
      "inputs": [],
      "name": "owner",
      "outputs": [
        {
          "internalType": "address",
          "name": "",
          "type": "address"
        }
      ],
      "stateMutability": "view",
      "type": "function"
    },
    {
      "inputs": [
        {
          "internalType": "uint256",
          "name": "tokenId",
          "type": "uint256"
        }
      ],
      "name": "ownerOf",
      "outputs": [
        {
          "internalType": "address",
          "name": "",
          "type": "address"
        }
      ],
      "stateMutability": "view",
      "type": "function"
    },
    {
      "inputs": [
        {
          "internalType": "uint256",
          "name": "numberOfTokens",
          "type": "uint256"
        }
      ],
      "name": "presaleEmoji",
      "outputs": [],
      "stateMutability": "payable",
      "type": "function"
    },
    {
      "inputs": [],
      "name": "presaleIsActive",
      "outputs": [
        {
          "internalType": "bool",
          "name": "",
          "type": "bool"
        }
      ],
      "stateMutability": "view",
      "type": "function"
    },
    {
      "inputs": [],
      "name": "presaleMaxMint",
      "outputs": [
        {
          "internalType": "uint256",
          "name": "",
          "type": "uint256"
        }
      ],
      "stateMutability": "view",
      "type": "function"
    },
    {
      "inputs": [
        {
          "internalType": "address[]",
          "name": "addresses",
          "type": "address[]"
        }
      ],
      "name": "removeFromPresaleList",
      "outputs": [],
      "stateMutability": "nonpayable",
      "type": "function"
    },
    {
      "inputs": [],
      "name": "renounceOwnership",
      "outputs": [],
      "stateMutability": "nonpayable",
      "type": "function"
    },
    {
      "inputs": [
        {
          "internalType": "address",
          "name": "_to",
          "type": "address"
        },
        {
          "internalType": "uint256",
          "name": "_reserveAmount",
          "type": "uint256"
        }
      ],
      "name": "reserveTokens",
      "outputs": [],
      "stateMutability": "nonpayable",
      "type": "function"
    },
    {
      "inputs": [],
      "name": "reveal",
      "outputs": [],
      "stateMutability": "nonpayable",
      "type": "function"
    },
    {
      "inputs": [
        {
          "internalType": "address",
          "name": "from",
          "type": "address"
        },
        {
          "internalType": "address",
          "name": "to",
          "type": "address"
        },
        {
          "internalType": "uint256",
          "name": "tokenId",
          "type": "uint256"
        }
      ],
      "name": "safeTransferFrom",
      "outputs": [],
      "stateMutability": "nonpayable",
      "type": "function"
    },
    {
      "inputs": [
        {
          "internalType": "address",
          "name": "from",
          "type": "address"
        },
        {
          "internalType": "address",
          "name": "to",
          "type": "address"
        },
        {
          "internalType": "uint256",
          "name": "tokenId",
          "type": "uint256"
        },
        {
          "internalType": "bytes",
          "name": "_data",
          "type": "bytes"
        }
      ],
      "name": "safeTransferFrom",
      "outputs": [],
      "stateMutability": "nonpayable",
      "type": "function"
    },
    {
      "inputs": [],
      "name": "saleIsActive",
      "outputs": [
        {
          "internalType": "bool",
          "name": "",
          "type": "bool"
        }
      ],
      "stateMutability": "view",
      "type": "function"
    },
    {
      "inputs": [
        {
          "internalType": "address",
          "name": "operator",
          "type": "address"
        },
        {
          "internalType": "bool",
          "name": "approved",
          "type": "bool"
        }
      ],
      "name": "setApprovalForAll",
      "outputs": [],
      "stateMutability": "nonpayable",
      "type": "function"
    },
    {
      "inputs": [
        {
          "internalType": "string",
          "name": "_newBaseURI",
          "type": "string"
        }
      ],
      "name": "setBaseURI",
      "outputs": [],
      "stateMutability": "nonpayable",
      "type": "function"
    },
    {
      "inputs": [
        {
          "internalType": "uint256",
          "name": "maxMint",
          "type": "uint256"
        }
      ],
      "name": "setPresaleMaxMint",
      "outputs": [],
      "stateMutability": "nonpayable",
      "type": "function"
    },
    {
      "inputs": [
        {
          "internalType": "bytes4",
          "name": "interfaceId",
          "type": "bytes4"
        }
      ],
      "name": "supportsInterface",
      "outputs": [
        {
          "internalType": "bool",
          "name": "",
          "type": "bool"
        }
      ],
      "stateMutability": "view",
      "type": "function"
    },
    {
      "inputs": [],
      "name": "symbol",
      "outputs": [
        {
          "internalType": "string",
          "name": "",
          "type": "string"
        }
      ],
      "stateMutability": "view",
      "type": "function"
    },
    {
      "inputs": [],
      "name": "togglePresaleState",
      "outputs": [],
      "stateMutability": "nonpayable",
      "type": "function"
    },
    {
      "inputs": [],
      "name": "toggleSaleState",
      "outputs": [],
      "stateMutability": "nonpayable",
      "type": "function"
    },
    {
      "inputs": [
        {
          "internalType": "uint256",
          "name": "index",
          "type": "uint256"
        }
      ],
      "name": "tokenByIndex",
      "outputs": [
        {
          "internalType": "uint256",
          "name": "",
          "type": "uint256"
        }
      ],
      "stateMutability": "view",
      "type": "function"
    },
    {
      "inputs": [
        {
          "internalType": "address",
          "name": "owner",
          "type": "address"
        },
        {
          "internalType": "uint256",
          "name": "index",
          "type": "uint256"
        }
      ],
      "name": "tokenOfOwnerByIndex",
      "outputs": [
        {
          "internalType": "uint256",
          "name": "",
          "type": "uint256"
        }
      ],
      "stateMutability": "view",
      "type": "function"
    },
    {
      "inputs": [],
      "name": "tokenPrice",
      "outputs": [
        {
          "internalType": "uint256",
          "name": "",
          "type": "uint256"
        }
      ],
      "stateMutability": "view",
      "type": "function"
    },
    {
      "inputs": [
        {
          "internalType": "uint256",
          "name": "tokenId",
          "type": "uint256"
        }
      ],
      "name": "tokenURI",
      "outputs": [
        {
          "internalType": "string",
          "name": "",
          "type": "string"
        }
      ],
      "stateMutability": "view",
      "type": "function"
    },
    {
      "inputs": [
        {
          "internalType": "address",
          "name": "_owner",
          "type": "address"
        }
      ],
      "name": "tokensOfOwner",
      "outputs": [
        {
          "internalType": "uint256[]",
          "name": "",
          "type": "uint256[]"
        }
      ],
      "stateMutability": "view",
      "type": "function"
    },
    {
      "inputs": [],
      "name": "totalSupply",
      "outputs": [
        {
          "internalType": "uint256",
          "name": "",
          "type": "uint256"
        }
      ],
      "stateMutability": "view",
      "type": "function"
    },
    {
      "inputs": [
        {
          "internalType": "address",
          "name": "from",
          "type": "address"
        },
        {
          "internalType": "address",
          "name": "to",
          "type": "address"
        },
        {
          "internalType": "uint256",
          "name": "tokenId",
          "type": "uint256"
        }
      ],
      "name": "transferFrom",
      "outputs": [],
      "stateMutability": "nonpayable",
      "type": "function"
    },
    {
      "inputs": [
        {
          "internalType": "address",
          "name": "newOwner",
          "type": "address"
        }
      ],
      "name": "transferOwnership",
      "outputs": [],
      "stateMutability": "nonpayable",
      "type": "function"
    },
    {
      "inputs": [],
      "name": "withdraw",
      "outputs": [],
      "stateMutability": "payable",
      "type": "function"
    }
  ],
  "bytecode": "0x608060405260405180602001604052806000815250600b90805190602001906200002b92919062000229565b506000600c60006101000a81548160ff0219169083151502179055506000600c60016101000a81548160ff0219169083151502179055506000600c60026101000a81548160ff0219169083151502179055506002600f5560406010553480156200009457600080fd5b506040518060400160405280600d81526020017f456d6f6a6946616365734e6577000000000000000000000000000000000000008152506040518060400160405280600381526020017f454653000000000000000000000000000000000000000000000000000000000081525081600090805190602001906200011992919062000229565b5080600190805190602001906200013292919062000229565b50505062000155620001496200015b60201b60201c565b6200016360201b60201c565b6200033e565b600033905090565b6000600660009054906101000a900473ffffffffffffffffffffffffffffffffffffffff16905081600660006101000a81548173ffffffffffffffffffffffffffffffffffffffff021916908373ffffffffffffffffffffffffffffffffffffffff1602179055508173ffffffffffffffffffffffffffffffffffffffff168173ffffffffffffffffffffffffffffffffffffffff167f8be0079c531659141344cd1fd0a4f28419497f9722a3daafe3b4186f6b6457e060405160405180910390a35050565b8280546200023790620002d9565b90600052602060002090601f0160209004810192826200025b5760008555620002a7565b82601f106200027657805160ff1916838001178555620002a7565b82800160010185558215620002a7579182015b82811115620002a657825182559160200191906001019062000289565b5b509050620002b69190620002ba565b5090565b5b80821115620002d5576000816000905550600101620002bb565b5090565b60006002820490506001821680620002f257607f821691505b602082108114156200030957620003086200030f565b5b50919050565b7f4e487b7100000000000000000000000000000000000000000000000000000000600052602260045260246000fd5b615400806200034e6000396000f3fe6080604052600436106102465760003560e01c806378cf19e911610139578063b88d4fde116100b6578063e985e9c51161007a578063e985e9c51461083f578063eb8d24441461087c578063f285e69e146108a7578063f2fde38b146108be578063f47c84c5146108e7578063fcd2a4271461091257610246565b8063b88d4fde1461077d578063bf6bd9ea146107a6578063c87b56dd146107c2578063daaeec86146107ff578063df4305d21461081657610246565b8063946ef42a116100fd578063946ef42a146106be57806395d89b41146106e9578063a22cb46514610714578063a475b5dd1461073d578063b179e0601461075457610246565b806378cf19e9146105e65780637ff9b5961461060f5780638462151c1461063a5780638caa6bcd146106775780638da5cb5b1461069357610246565b80633ccfd60b116101c75780636352211e1161018b5780636352211e146105015780636c0360eb1461053e57806370a0823114610569578063715018a6146105a65780637204a3c9146105bd57610246565b80633ccfd60b1461043d57806342842e0e146104475780634f6ccce71461047057806354214f69146104ad57806355f804b3146104d857610246565b806311576b791161020e57806311576b791461034457806318160ddd1461038157806323b872dd146103ac5780632f745c59146103d557806330f72cd41461041257610246565b806301ffc9a71461024b57806306fdde0314610288578063081812fc146102b3578063095ea7b3146102f057806309aa3dcf14610319575b600080fd5b34801561025757600080fd5b50610272600480360381019061026d9190613bf1565b61093d565b60405161027f919061430c565b60405180910390f35b34801561029457600080fd5b5061029d61094f565b6040516102aa9190614327565b60405180910390f35b3480156102bf57600080fd5b506102da60048036038101906102d59190613c84565b6109e1565b6040516102e79190614283565b60405180910390f35b3480156102fc57600080fd5b5061031760048036038101906103129190613b70565b610a66565b005b34801561032557600080fd5b5061032e610b7e565b60405161033b91906146e9565b60405180910390f35b34801561035057600080fd5b5061036b60048036038101906103669190613a05565b610b83565b604051610378919061430c565b60405180910390f35b34801561038d57600080fd5b50610396610bd9565b6040516103a391906146e9565b60405180910390f35b3480156103b857600080fd5b506103d360048036038101906103ce9190613a6a565b610be6565b005b3480156103e157600080fd5b506103fc60048036038101906103f79190613b70565b610c46565b60405161040991906146e9565b60405180910390f35b34801561041e57600080fd5b50610427610ceb565b604051610434919061430c565b60405180910390f35b610445610cfe565b005b34801561045357600080fd5b5061046e60048036038101906104699190613a6a565b610dfa565b005b34801561047c57600080fd5b5061049760048036038101906104929190613c84565b610e1a565b6040516104a491906146e9565b60405180910390f35b3480156104b957600080fd5b506104c2610eb1565b6040516104cf919061430c565b60405180910390f35b3480156104e457600080fd5b506104ff60048036038101906104fa9190613c43565b610ec4565b005b34801561050d57600080fd5b5061052860048036038101906105239190613c84565b610f5a565b6040516105359190614283565b60405180910390f35b34801561054a57600080fd5b5061055361100c565b6040516105609190614327565b60405180910390f35b34801561057557600080fd5b50610590600480360381019061058b9190613a05565b61109a565b60405161059d91906146e9565b60405180910390f35b3480156105b257600080fd5b506105bb611152565b005b3480156105c957600080fd5b506105e460048036038101906105df9190613bac565b6111da565b005b3480156105f257600080fd5b5061060d60048036038101906106089190613b70565b6113de565b005b34801561061b57600080fd5b50610624611500565b60405161063191906146e9565b60405180910390f35b34801561064657600080fd5b50610661600480360381019061065c9190613a05565b611507565b60405161066e91906142ea565b60405180910390f35b610691600480360381019061068c9190613c84565b611683565b005b34801561069f57600080fd5b506106a86119e9565b6040516106b59190614283565b60405180910390f35b3480156106ca57600080fd5b506106d3611a13565b6040516106e091906146e9565b60405180910390f35b3480156106f557600080fd5b506106fe611a19565b60405161070b9190614327565b60405180910390f35b34801561072057600080fd5b5061073b60048036038101906107369190613b34565b611aab565b005b34801561074957600080fd5b50610752611c2c565b005b34801561076057600080fd5b5061077b60048036038101906107769190613bac565b611cc5565b005b34801561078957600080fd5b506107a4600480360381019061079f9190613ab9565b611ec9565b005b6107c060048036038101906107bb9190613c84565b611f2b565b005b3480156107ce57600080fd5b506107e960048036038101906107e49190613c84565b612117565b6040516107f69190614327565b60405180910390f35b34801561080b57600080fd5b506108146121fc565b005b34801561082257600080fd5b5061083d60048036038101906108389190613c84565b6122a4565b005b34801561084b57600080fd5b5061086660048036038101906108619190613a2e565b61232a565b604051610873919061430c565b60405180910390f35b34801561088857600080fd5b506108916123be565b60405161089e919061430c565b60405180910390f35b3480156108b357600080fd5b506108bc6123d1565b005b3480156108ca57600080fd5b506108e560048036038101906108e09190613a05565b612479565b005b3480156108f357600080fd5b506108fc612571565b60405161090991906146e9565b60405180910390f35b34801561091e57600080fd5b50610927612577565b60405161093491906146e9565b60405180910390f35b60006109488261257d565b9050919050565b60606000805461095e90614a06565b80601f016020809104026020016040519081016040528092919081815260200182805461098a90614a06565b80156109d75780601f106109ac576101008083540402835291602001916109d7565b820191906000526020600020905b8154815290600101906020018083116109ba57829003601f168201915b5050505050905090565b60006109ec826125f7565b610a2b576040517f08c379a0000000000000000000000000000000000000000000000000000000008152600401610a2290614569565b60405180910390fd5b6004600083815260200190815260200160002060009054906101000a900473ffffffffffffffffffffffffffffffffffffffff169050919050565b6000610a7182610f5a565b90508073ffffffffffffffffffffffffffffffffffffffff168373ffffffffffffffffffffffffffffffffffffffff161415610ae2576040517f08c379a0000000000000000000000000000000000000000000000000000000008152600401610ad990614629565b60405180910390fd5b8073ffffffffffffffffffffffffffffffffffffffff16610b01612663565b73ffffffffffffffffffffffffffffffffffffffff161480610b305750610b2f81610b2a612663565b61232a565b5b610b6f576040517f08c379a0000000000000000000000000000000000000000000000000000000008152600401610b66906144c9565b60405180910390fd5b610b79838361266b565b505050565b600381565b6000600d60008373ffffffffffffffffffffffffffffffffffffffff1673ffffffffffffffffffffffffffffffffffffffff16815260200190815260200160002060009054906101000a900460ff169050919050565b6000600980549050905090565b610bf7610bf1612663565b82612724565b610c36576040517f08c379a0000000000000000000000000000000000000000000000000000000008152600401610c2d90614649565b60405180910390fd5b610c41838383612802565b505050565b6000610c518361109a565b8210610c92576040517f08c379a0000000000000000000000000000000000000000000000000000000008152600401610c8990614369565b60405180910390fd5b600760008473ffffffffffffffffffffffffffffffffffffffff1673ffffffffffffffffffffffffffffffffffffffff168152602001908152602001600020600083815260200190815260200160002054905092915050565b600c60019054906101000a900460ff1681565b610d06612663565b73ffffffffffffffffffffffffffffffffffffffff16610d246119e9565b73ffffffffffffffffffffffffffffffffffffffff1614610d7a576040517f08c379a0000000000000000000000000000000000000000000000000000000008152600401610d7190614589565b60405180910390fd5b6000610d846119e9565b73ffffffffffffffffffffffffffffffffffffffff1647604051610da79061426e565b60006040518083038185875af1925050503d8060008114610de4576040519150601f19603f3d011682016040523d82523d6000602084013e610de9565b606091505b5050905080610df757600080fd5b50565b610e1583838360405180602001604052806000815250611ec9565b505050565b6000610e24610bd9565b8210610e65576040517f08c379a0000000000000000000000000000000000000000000000000000000008152600401610e5c90614669565b60405180910390fd5b60098281548110610e9f577f4e487b7100000000000000000000000000000000000000000000000000000000600052603260045260246000fd5b90600052602060002001549050919050565b600c60029054906101000a900460ff1681565b610ecc612663565b73ffffffffffffffffffffffffffffffffffffffff16610eea6119e9565b73ffffffffffffffffffffffffffffffffffffffff1614610f40576040517f08c379a0000000000000000000000000000000000000000000000000000000008152600401610f3790614589565b60405180910390fd5b80600b9080519060200190610f569291906137df565b5050565b6000806002600084815260200190815260200160002060009054906101000a900473ffffffffffffffffffffffffffffffffffffffff169050600073ffffffffffffffffffffffffffffffffffffffff168173ffffffffffffffffffffffffffffffffffffffff161415611003576040517f08c379a0000000000000000000000000000000000000000000000000000000008152600401610ffa90614509565b60405180910390fd5b80915050919050565b600b805461101990614a06565b80601f016020809104026020016040519081016040528092919081815260200182805461104590614a06565b80156110925780601f1061106757610100808354040283529160200191611092565b820191906000526020600020905b81548152906001019060200180831161107557829003601f168201915b505050505081565b60008073ffffffffffffffffffffffffffffffffffffffff168273ffffffffffffffffffffffffffffffffffffffff16141561110b576040517f08c379a0000000000000000000000000000000000000000000000000000000008152600401611102906144e9565b60405180910390fd5b600360008373ffffffffffffffffffffffffffffffffffffffff1673ffffffffffffffffffffffffffffffffffffffff168152602001908152602001600020549050919050565b61115a612663565b73ffffffffffffffffffffffffffffffffffffffff166111786119e9565b73ffffffffffffffffffffffffffffffffffffffff16146111ce576040517f08c379a00000000000000000000000000000000000000000000000000000000081526004016111c590614589565b60405180910390fd5b6111d86000612a5e565b565b6111e2612663565b73ffffffffffffffffffffffffffffffffffffffff166112006119e9565b73ffffffffffffffffffffffffffffffffffffffff1614611256576040517f08c379a000000000000000000000000000000000000000000000000000000000815260040161124d90614589565b60405180910390fd5b60005b828290508110156113d957600073ffffffffffffffffffffffffffffffffffffffff168383838181106112b5577f4e487b7100000000000000000000000000000000000000000000000000000000600052603260045260246000fd5b90506020020160208101906112ca9190613a05565b73ffffffffffffffffffffffffffffffffffffffff161415611321576040517f08c379a0000000000000000000000000000000000000000000000000000000008152600401611318906145a9565b60405180910390fd5b6001600d6000858585818110611360577f4e487b7100000000000000000000000000000000000000000000000000000000600052603260045260246000fd5b90506020020160208101906113759190613a05565b73ffffffffffffffffffffffffffffffffffffffff1673ffffffffffffffffffffffffffffffffffffffff16815260200190815260200160002060006101000a81548160ff02191690831515021790555080806113d190614a69565b915050611259565b505050565b6113e6612663565b73ffffffffffffffffffffffffffffffffffffffff166114046119e9565b73ffffffffffffffffffffffffffffffffffffffff161461145a576040517f08c379a000000000000000000000000000000000000000000000000000000000815260040161145190614589565b60405180910390fd5b60008111801561146c57506010548111155b6114ab576040517f08c379a00000000000000000000000000000000000000000000000000000000081526004016114a290614429565b60405180910390fd5b60005b818110156114e05760006114c0610bd9565b90506114cc8482612b24565b5080806114d890614a69565b9150506114ae565b506114f681601054612b4290919063ffffffff16565b6010819055505050565b6202e63081565b606060006115148361109a565b9050600081141561159757600067ffffffffffffffff811115611560577f4e487b7100000000000000000000000000000000000000000000000000000000600052604160045260246000fd5b60405190808252806020026020018201604052801561158e5781602001602082028036833780820191505090505b5091505061167e565b60008167ffffffffffffffff8111156115d9577f4e487b7100000000000000000000000000000000000000000000000000000000600052604160045260246000fd5b6040519080825280602002602001820160405280156116075781602001602082028036833780820191505090505b50905060005b828110156116775761161f8582610c46565b828281518110611658577f4e487b7100000000000000000000000000000000000000000000000000000000600052603260045260246000fd5b602002602001018181525050808061166f90614a69565b91505061160d565b8193505050505b919050565b600c60019054906101000a900460ff166116d2576040517f08c379a00000000000000000000000000000000000000000000000000000000081526004016116c990614689565b60405180910390fd5b600d60003373ffffffffffffffffffffffffffffffffffffffff1673ffffffffffffffffffffffffffffffffffffffff16815260200190815260200160002060009054906101000a900460ff1661175e576040517f08c379a0000000000000000000000000000000000000000000000000000000008152600401611755906143e9565b60405180910390fd5b61271061177b8261176d610bd9565b612b5890919063ffffffff16565b11156117bc576040517f08c379a00000000000000000000000000000000000000000000000000000000081526004016117b3906145c9565b60405180910390fd5b6000811180156117ce5750600f548111155b61180d576040517f08c379a0000000000000000000000000000000000000000000000000000000008152600401611804906146c9565b60405180910390fd5b600f5461186282600e60003373ffffffffffffffffffffffffffffffffffffffff1673ffffffffffffffffffffffffffffffffffffffff16815260200190815260200160002054612b5890919063ffffffff16565b11156118a3576040517f08c379a000000000000000000000000000000000000000000000000000000000815260040161189a906146a9565b60405180910390fd5b6118b9816202e630612b6e90919063ffffffff16565b3410156118fb576040517f08c379a00000000000000000000000000000000000000000000000000000000081526004016118f290614489565b60405180910390fd5b60005b818110156119e55760006119236001611915610bd9565b612b5890919063ffffffff16565b9050612710611930610bd9565b10156119d1576001600e60003373ffffffffffffffffffffffffffffffffffffffff1673ffffffffffffffffffffffffffffffffffffffff1681526020019081526020016000206000828254611986919061483b565b925050819055506119973382612b24565b7f7853d1461ac86ac48ba5b6be5e468cb642eeba574b7b287ae5e6e5174dd2b4f181336040516119c8929190614704565b60405180910390a15b5080806119dd90614a69565b9150506118fe565b5050565b6000600660009054906101000a900473ffffffffffffffffffffffffffffffffffffffff16905090565b600f5481565b606060018054611a2890614a06565b80601f0160208091040260200160405190810160405280929190818152602001828054611a5490614a06565b8015611aa15780601f10611a7657610100808354040283529160200191611aa1565b820191906000526020600020905b815481529060010190602001808311611a8457829003601f168201915b5050505050905090565b611ab3612663565b73ffffffffffffffffffffffffffffffffffffffff168273ffffffffffffffffffffffffffffffffffffffff161415611b21576040517f08c379a0000000000000000000000000000000000000000000000000000000008152600401611b1890614469565b60405180910390fd5b8060056000611b2e612663565b73ffffffffffffffffffffffffffffffffffffffff1673ffffffffffffffffffffffffffffffffffffffff16815260200190815260200160002060008473ffffffffffffffffffffffffffffffffffffffff1673ffffffffffffffffffffffffffffffffffffffff16815260200190815260200160002060006101000a81548160ff0219169083151502179055508173ffffffffffffffffffffffffffffffffffffffff16611bdb612663565b73ffffffffffffffffffffffffffffffffffffffff167f17307eab39ab6107e8899845ad3d59bd9653f200f220920489ca2b5937696c3183604051611c20919061430c565b60405180910390a35050565b611c34612663565b73ffffffffffffffffffffffffffffffffffffffff16611c526119e9565b73ffffffffffffffffffffffffffffffffffffffff1614611ca8576040517f08c379a0000000000000000000000000000000000000000000000000000000008152600401611c9f90614589565b60405180910390fd5b6001600c60026101000a81548160ff021916908315150217905550565b611ccd612663565b73ffffffffffffffffffffffffffffffffffffffff16611ceb6119e9565b73ffffffffffffffffffffffffffffffffffffffff1614611d41576040517f08c379a0000000000000000000000000000000000000000000000000000000008152600401611d3890614589565b60405180910390fd5b60005b82829050811015611ec457600073ffffffffffffffffffffffffffffffffffffffff16838383818110611da0577f4e487b7100000000000000000000000000000000000000000000000000000000600052603260045260246000fd5b9050602002016020810190611db59190613a05565b73ffffffffffffffffffffffffffffffffffffffff161415611e0c576040517f08c379a0000000000000000000000000000000000000000000000000000000008152600401611e03906145a9565b60405180910390fd5b6000600d6000858585818110611e4b577f4e487b7100000000000000000000000000000000000000000000000000000000600052603260045260246000fd5b9050602002016020810190611e609190613a05565b73ffffffffffffffffffffffffffffffffffffffff1673ffffffffffffffffffffffffffffffffffffffff16815260200190815260200160002060006101000a81548160ff0219169083151502179055508080611ebc90614a69565b915050611d44565b505050565b611eda611ed4612663565b83612724565b611f19576040517f08c379a0000000000000000000000000000000000000000000000000000000008152600401611f1090614649565b60405180910390fd5b611f2584848484612b84565b50505050565b600c60009054906101000a900460ff16611f7a576040517f08c379a0000000000000000000000000000000000000000000000000000000008152600401611f7190614409565b60405180910390fd5b600081118015611f8b575060038111155b611fca576040517f08c379a0000000000000000000000000000000000000000000000000000000008152600401611fc190614349565b60405180910390fd5b612710611fe782611fd9610bd9565b612b5890919063ffffffff16565b1115612028576040517f08c379a000000000000000000000000000000000000000000000000000000000815260040161201f90614529565b60405180910390fd5b61203e816202e630612b6e90919063ffffffff16565b341015612080576040517f08c379a000000000000000000000000000000000000000000000000000000000815260040161207790614489565b60405180910390fd5b60005b818110156121135760006120a8600161209a610bd9565b612b5890919063ffffffff16565b90506127106120b5610bd9565b10156120ff576120c53382612b24565b7f7853d1461ac86ac48ba5b6be5e468cb642eeba574b7b287ae5e6e5174dd2b4f181336040516120f6929190614704565b60405180910390a15b50808061210b90614a69565b915050612083565b5050565b6060612122826125f7565b612161576040517f08c379a000000000000000000000000000000000000000000000000000000000815260040161215890614609565b60405180910390fd5b600061216b612be0565b905060001515600c60029054906101000a900460ff16151514156121aa5760405180608001604052806041815260200161538a604191399150506121f7565b60008151116121c857604051806020016040528060008152506121f3565b806121d284612c72565b6040516020016121e392919061423f565b6040516020818303038152906040525b9150505b919050565b612204612663565b73ffffffffffffffffffffffffffffffffffffffff166122226119e9565b73ffffffffffffffffffffffffffffffffffffffff1614612278576040517f08c379a000000000000000000000000000000000000000000000000000000000815260040161226f90614589565b60405180910390fd5b600c60009054906101000a900460ff1615600c60006101000a81548160ff021916908315150217905550565b6122ac612663565b73ffffffffffffffffffffffffffffffffffffffff166122ca6119e9565b73ffffffffffffffffffffffffffffffffffffffff1614612320576040517f08c379a000000000000000000000000000000000000000000000000000000000815260040161231790614589565b60405180910390fd5b80600f8190555050565b6000600560008473ffffffffffffffffffffffffffffffffffffffff1673ffffffffffffffffffffffffffffffffffffffff16815260200190815260200160002060008373ffffffffffffffffffffffffffffffffffffffff1673ffffffffffffffffffffffffffffffffffffffff16815260200190815260200160002060009054906101000a900460ff16905092915050565b600c60009054906101000a900460ff1681565b6123d9612663565b73ffffffffffffffffffffffffffffffffffffffff166123f76119e9565b73ffffffffffffffffffffffffffffffffffffffff161461244d576040517f08c379a000000000000000000000000000000000000000000000000000000000815260040161244490614589565b60405180910390fd5b600c60019054906101000a900460ff1615600c60016101000a81548160ff021916908315150217905550565b612481612663565b73ffffffffffffffffffffffffffffffffffffffff1661249f6119e9565b73ffffffffffffffffffffffffffffffffffffffff16146124f5576040517f08c379a00000000000000000000000000000000000000000000000000000000081526004016124ec90614589565b60405180910390fd5b600073ffffffffffffffffffffffffffffffffffffffff168173ffffffffffffffffffffffffffffffffffffffff161415612565576040517f08c379a000000000000000000000000000000000000000000000000000000000815260040161255c906143a9565b60405180910390fd5b61256e81612a5e565b50565b61271081565b60105481565b60007f780e9d63000000000000000000000000000000000000000000000000000000007bffffffffffffffffffffffffffffffffffffffffffffffffffffffff1916827bffffffffffffffffffffffffffffffffffffffffffffffffffffffff191614806125f057506125ef82612e1f565b5b9050919050565b60008073ffffffffffffffffffffffffffffffffffffffff166002600084815260200190815260200160002060009054906101000a900473ffffffffffffffffffffffffffffffffffffffff1673ffffffffffffffffffffffffffffffffffffffff1614159050919050565b600033905090565b816004600083815260200190815260200160002060006101000a81548173ffffffffffffffffffffffffffffffffffffffff021916908373ffffffffffffffffffffffffffffffffffffffff160217905550808273ffffffffffffffffffffffffffffffffffffffff166126de83610f5a565b73ffffffffffffffffffffffffffffffffffffffff167f8c5be1e5ebec7d5bd14f71427d1e84f3dd0314c0f7b2291e5b200ac8c7c3b92560405160405180910390a45050565b600061272f826125f7565b61276e576040517f08c379a0000000000000000000000000000000000000000000000000000000008152600401612765906144a9565b60405180910390fd5b600061277983610f5a565b90508073ffffffffffffffffffffffffffffffffffffffff168473ffffffffffffffffffffffffffffffffffffffff1614806127e857508373ffffffffffffffffffffffffffffffffffffffff166127d0846109e1565b73ffffffffffffffffffffffffffffffffffffffff16145b806127f957506127f8818561232a565b5b91505092915050565b8273ffffffffffffffffffffffffffffffffffffffff1661282282610f5a565b73ffffffffffffffffffffffffffffffffffffffff1614612878576040517f08c379a000000000000000000000000000000000000000000000000000000000815260040161286f906145e9565b60405180910390fd5b600073ffffffffffffffffffffffffffffffffffffffff168273ffffffffffffffffffffffffffffffffffffffff1614156128e8576040517f08c379a00000000000000000000000000000000000000000000000000000000081526004016128df90614449565b60405180910390fd5b6128f3838383612f01565b6128fe60008261266b565b6001600360008573ffffffffffffffffffffffffffffffffffffffff1673ffffffffffffffffffffffffffffffffffffffff168152602001908152602001600020600082825461294e919061491c565b925050819055506001600360008473ffffffffffffffffffffffffffffffffffffffff1673ffffffffffffffffffffffffffffffffffffffff16815260200190815260200160002060008282546129a5919061483b565b92505081905550816002600083815260200190815260200160002060006101000a81548173ffffffffffffffffffffffffffffffffffffffff021916908373ffffffffffffffffffffffffffffffffffffffff160217905550808273ffffffffffffffffffffffffffffffffffffffff168473ffffffffffffffffffffffffffffffffffffffff167fddf252ad1be2c89b69c2b068fc378daa952ba7f163c4a11628f55a4df523b3ef60405160405180910390a4505050565b6000600660009054906101000a900473ffffffffffffffffffffffffffffffffffffffff16905081600660006101000a81548173ffffffffffffffffffffffffffffffffffffffff021916908373ffffffffffffffffffffffffffffffffffffffff1602179055508173ffffffffffffffffffffffffffffffffffffffff168173ffffffffffffffffffffffffffffffffffffffff167f8be0079c531659141344cd1fd0a4f28419497f9722a3daafe3b4186f6b6457e060405160405180910390a35050565b612b3e828260405180602001604052806000815250612f11565b5050565b60008183612b50919061491c565b905092915050565b60008183612b66919061483b565b905092915050565b60008183612b7c91906148c2565b905092915050565b612b8f848484612802565b612b9b84848484612f6c565b612bda576040517f08c379a0000000000000000000000000000000000000000000000000000000008152600401612bd190614389565b60405180910390fd5b50505050565b6060600b8054612bef90614a06565b80601f0160208091040260200160405190810160405280929190818152602001828054612c1b90614a06565b8015612c685780601f10612c3d57610100808354040283529160200191612c68565b820191906000526020600020905b815481529060010190602001808311612c4b57829003601f168201915b5050505050905090565b60606000821415612cba576040518060400160405280600181526020017f30000000000000000000000000000000000000000000000000000000000000008152509050612e1a565b600082905060005b60008214612cec578080612cd590614a69565b915050600a82612ce59190614891565b9150612cc2565b60008167ffffffffffffffff811115612d2e577f4e487b7100000000000000000000000000000000000000000000000000000000600052604160045260246000fd5b6040519080825280601f01601f191660200182016040528015612d605781602001600182028036833780820191505090505b5090505b60008514612e1357600182612d79919061491c565b9150600a85612d889190614ab2565b6030612d94919061483b565b60f81b818381518110612dd0577f4e487b7100000000000000000000000000000000000000000000000000000000600052603260045260246000fd5b60200101907effffffffffffffffffffffffffffffffffffffffffffffffffffffffffffff1916908160001a905350600a85612e0c9190614891565b9450612d64565b8093505050505b919050565b60007f80ac58cd000000000000000000000000000000000000000000000000000000007bffffffffffffffffffffffffffffffffffffffffffffffffffffffff1916827bffffffffffffffffffffffffffffffffffffffffffffffffffffffff19161480612eea57507f5b5e139f000000000000000000000000000000000000000000000000000000007bffffffffffffffffffffffffffffffffffffffffffffffffffffffff1916827bffffffffffffffffffffffffffffffffffffffffffffffffffffffff1916145b80612efa5750612ef982613103565b5b9050919050565b612f0c83838361316d565b505050565b612f1b8383613281565b612f286000848484612f6c565b612f67576040517f08c379a0000000000000000000000000000000000000000000000000000000008152600401612f5e90614389565b60405180910390fd5b505050565b6000612f8d8473ffffffffffffffffffffffffffffffffffffffff1661344f565b156130f6578373ffffffffffffffffffffffffffffffffffffffff1663150b7a02612fb6612663565b8786866040518563ffffffff1660e01b8152600401612fd8949392919061429e565b602060405180830381600087803b158015612ff257600080fd5b505af192505050801561302357506040513d601f19601f820116820180604052508101906130209190613c1a565b60015b6130a6573d8060008114613053576040519150601f19603f3d011682016040523d82523d6000602084013e613058565b606091505b5060008151141561309e576040517f08c379a000000000000000000000000000000000000000000000000000000000815260040161309590614389565b60405180910390fd5b805181602001fd5b63150b7a0260e01b7bffffffffffffffffffffffffffffffffffffffffffffffffffffffff1916817bffffffffffffffffffffffffffffffffffffffffffffffffffffffff1916149150506130fb565b600190505b949350505050565b60007f01ffc9a7000000000000000000000000000000000000000000000000000000007bffffffffffffffffffffffffffffffffffffffffffffffffffffffff1916827bffffffffffffffffffffffffffffffffffffffffffffffffffffffff1916149050919050565b613178838383613462565b600073ffffffffffffffffffffffffffffffffffffffff168373ffffffffffffffffffffffffffffffffffffffff1614156131bb576131b681613467565b6131fa565b8173ffffffffffffffffffffffffffffffffffffffff168373ffffffffffffffffffffffffffffffffffffffff16146131f9576131f883826134b0565b5b5b600073ffffffffffffffffffffffffffffffffffffffff168273ffffffffffffffffffffffffffffffffffffffff16141561323d576132388161361d565b61327c565b8273ffffffffffffffffffffffffffffffffffffffff168273ffffffffffffffffffffffffffffffffffffffff161461327b5761327a8282613760565b5b5b505050565b600073ffffffffffffffffffffffffffffffffffffffff168273ffffffffffffffffffffffffffffffffffffffff1614156132f1576040517f08c379a00000000000000000000000000000000000000000000000000000000081526004016132e890614549565b60405180910390fd5b6132fa816125f7565b1561333a576040517f08c379a0000000000000000000000000000000000000000000000000000000008152600401613331906143c9565b60405180910390fd5b61334660008383612f01565b6001600360008473ffffffffffffffffffffffffffffffffffffffff1673ffffffffffffffffffffffffffffffffffffffff1681526020019081526020016000206000828254613396919061483b565b92505081905550816002600083815260200190815260200160002060006101000a81548173ffffffffffffffffffffffffffffffffffffffff021916908373ffffffffffffffffffffffffffffffffffffffff160217905550808273ffffffffffffffffffffffffffffffffffffffff16600073ffffffffffffffffffffffffffffffffffffffff167fddf252ad1be2c89b69c2b068fc378daa952ba7f163c4a11628f55a4df523b3ef60405160405180910390a45050565b600080823b905060008111915050919050565b505050565b600980549050600a600083815260200190815260200160002081905550600981908060018154018082558091505060019003906000526020600020016000909190919091505550565b600060016134bd8461109a565b6134c7919061491c565b90506000600860008481526020019081526020016000205490508181146135ac576000600760008673ffffffffffffffffffffffffffffffffffffffff1673ffffffffffffffffffffffffffffffffffffffff168152602001908152602001600020600084815260200190815260200160002054905080600760008773ffffffffffffffffffffffffffffffffffffffff1673ffffffffffffffffffffffffffffffffffffffff168152602001908152602001600020600084815260200190815260200160002081905550816008600083815260200190815260200160002081905550505b6008600084815260200190815260200160002060009055600760008573ffffffffffffffffffffffffffffffffffffffff1673ffffffffffffffffffffffffffffffffffffffff16815260200190815260200160002060008381526020019081526020016000206000905550505050565b60006001600980549050613631919061491c565b90506000600a6000848152602001908152602001600020549050600060098381548110613687577f4e487b7100000000000000000000000000000000000000000000000000000000600052603260045260246000fd5b9060005260206000200154905080600983815481106136cf577f4e487b7100000000000000000000000000000000000000000000000000000000600052603260045260246000fd5b906000526020600020018190555081600a600083815260200190815260200160002081905550600a6000858152602001908152602001600020600090556009805480613744577f4e487b7100000000000000000000000000000000000000000000000000000000600052603160045260246000fd5b6001900381819060005260206000200160009055905550505050565b600061376b8361109a565b905081600760008573ffffffffffffffffffffffffffffffffffffffff1673ffffffffffffffffffffffffffffffffffffffff168152602001908152602001600020600083815260200190815260200160002081905550806008600084815260200190815260200160002081905550505050565b8280546137eb90614a06565b90600052602060002090601f01602090048101928261380d5760008555613854565b82601f1061382657805160ff1916838001178555613854565b82800160010185558215613854579182015b82811115613853578251825591602001919060010190613838565b5b5090506138619190613865565b5090565b5b8082111561387e576000816000905550600101613866565b5090565b600061389561389084614752565b61472d565b9050828152602081018484840111156138ad57600080fd5b6138b88482856149c4565b509392505050565b60006138d36138ce84614783565b61472d565b9050828152602081018484840111156138eb57600080fd5b6138f68482856149c4565b509392505050565b60008135905061390d8161532d565b92915050565b60008083601f84011261392557600080fd5b8235905067ffffffffffffffff81111561393e57600080fd5b60208301915083602082028301111561395657600080fd5b9250929050565b60008135905061396c81615344565b92915050565b6000813590506139818161535b565b92915050565b6000815190506139968161535b565b92915050565b600082601f8301126139ad57600080fd5b81356139bd848260208601613882565b91505092915050565b600082601f8301126139d757600080fd5b81356139e78482602086016138c0565b91505092915050565b6000813590506139ff81615372565b92915050565b600060208284031215613a1757600080fd5b6000613a25848285016138fe565b91505092915050565b60008060408385031215613a4157600080fd5b6000613a4f858286016138fe565b9250506020613a60858286016138fe565b9150509250929050565b600080600060608486031215613a7f57600080fd5b6000613a8d868287016138fe565b9350506020613a9e868287016138fe565b9250506040613aaf868287016139f0565b9150509250925092565b60008060008060808587031215613acf57600080fd5b6000613add878288016138fe565b9450506020613aee878288016138fe565b9350506040613aff878288016139f0565b925050606085013567ffffffffffffffff811115613b1c57600080fd5b613b288782880161399c565b91505092959194509250565b60008060408385031215613b4757600080fd5b6000613b55858286016138fe565b9250506020613b668582860161395d565b9150509250929050565b60008060408385031215613b8357600080fd5b6000613b91858286016138fe565b9250506020613ba2858286016139f0565b9150509250929050565b60008060208385031215613bbf57600080fd5b600083013567ffffffffffffffff811115613bd957600080fd5b613be585828601613913565b92509250509250929050565b600060208284031215613c0357600080fd5b6000613c1184828501613972565b91505092915050565b600060208284031215613c2c57600080fd5b6000613c3a84828501613987565b91505092915050565b600060208284031215613c5557600080fd5b600082013567ffffffffffffffff811115613c6f57600080fd5b613c7b848285016139c6565b91505092915050565b600060208284031215613c9657600080fd5b6000613ca4848285016139f0565b91505092915050565b6000613cb98383614221565b60208301905092915050565b613cce81614950565b82525050565b6000613cdf826147c4565b613ce981856147f2565b9350613cf4836147b4565b8060005b83811015613d25578151613d0c8882613cad565b9750613d17836147e5565b925050600181019050613cf8565b5085935050505092915050565b613d3b81614962565b82525050565b6000613d4c826147cf565b613d568185614803565b9350613d668185602086016149d3565b613d6f81614b9f565b840191505092915050565b6000613d85826147da565b613d8f818561481f565b9350613d9f8185602086016149d3565b613da881614b9f565b840191505092915050565b6000613dbe826147da565b613dc88185614830565b9350613dd88185602086016149d3565b80840191505092915050565b6000613df1602a8361481f565b9150613dfc82614bb0565b604082019050919050565b6000613e14602b8361481f565b9150613e1f82614bff565b604082019050919050565b6000613e3760328361481f565b9150613e4282614c4e565b604082019050919050565b6000613e5a60268361481f565b9150613e6582614c9d565b604082019050919050565b6000613e7d601c8361481f565b9150613e8882614cec565b602082019050919050565b6000613ea0601f8361481f565b9150613eab82614d15565b602082019050919050565b6000613ec360218361481f565b9150613ece82614d3e565b604082019050919050565b6000613ee660208361481f565b9150613ef182614d8d565b602082019050919050565b6000613f0960248361481f565b9150613f1482614db6565b604082019050919050565b6000613f2c60198361481f565b9150613f3782614e05565b602082019050919050565b6000613f4f601f8361481f565b9150613f5a82614e2e565b602082019050919050565b6000613f72602c8361481f565b9150613f7d82614e57565b604082019050919050565b6000613f9560388361481f565b9150613fa082614ea6565b604082019050919050565b6000613fb8602a8361481f565b9150613fc382614ef5565b604082019050919050565b6000613fdb60298361481f565b9150613fe682614f44565b604082019050919050565b6000613ffe602a8361481f565b915061400982614f93565b604082019050919050565b600061402160208361481f565b915061402c82614fe2565b602082019050919050565b6000614044602c8361481f565b915061404f8261500b565b604082019050919050565b6000614067600583614830565b91506140728261505a565b600582019050919050565b600061408a60208361481f565b915061409582615083565b602082019050919050565b60006140ad601a8361481f565b91506140b8826150ac565b602082019050919050565b60006140d060298361481f565b91506140db826150d5565b604082019050919050565b60006140f360298361481f565b91506140fe82615124565b604082019050919050565b6000614116602f8361481f565b915061412182615173565b604082019050919050565b600061413960218361481f565b9150614144826151c2565b604082019050919050565b600061415c600083614814565b915061416782615211565b600082019050919050565b600061417f60318361481f565b915061418a82615214565b604082019050919050565b60006141a2602c8361481f565b91506141ad82615263565b604082019050919050565b60006141c560158361481f565b91506141d0826152b2565b602082019050919050565b60006141e8601c8361481f565b91506141f3826152db565b602082019050919050565b600061420b60208361481f565b915061421682615304565b602082019050919050565b61422a816149ba565b82525050565b614239816149ba565b82525050565b600061424b8285613db3565b91506142578284613db3565b91506142628261405a565b91508190509392505050565b60006142798261414f565b9150819050919050565b60006020820190506142986000830184613cc5565b92915050565b60006080820190506142b36000830187613cc5565b6142c06020830186613cc5565b6142cd6040830185614230565b81810360608301526142df8184613d41565b905095945050505050565b600060208201905081810360008301526143048184613cd4565b905092915050565b60006020820190506143216000830184613d32565b92915050565b600060208201905081810360008301526143418184613d7a565b905092915050565b6000602082019050818103600083015261436281613de4565b9050919050565b6000602082019050818103600083015261438281613e07565b9050919050565b600060208201905081810360008301526143a281613e2a565b9050919050565b600060208201905081810360008301526143c281613e4d565b9050919050565b600060208201905081810360008301526143e281613e70565b9050919050565b6000602082019050818103600083015261440281613e93565b9050919050565b6000602082019050818103600083015261442281613eb6565b9050919050565b6000602082019050818103600083015261444281613ed9565b9050919050565b6000602082019050818103600083015261446281613efc565b9050919050565b6000602082019050818103600083015261448281613f1f565b9050919050565b600060208201905081810360008301526144a281613f42565b9050919050565b600060208201905081810360008301526144c281613f65565b9050919050565b600060208201905081810360008301526144e281613f88565b9050919050565b6000602082019050818103600083015261450281613fab565b9050919050565b6000602082019050818103600083015261452281613fce565b9050919050565b6000602082019050818103600083015261454281613ff1565b9050919050565b6000602082019050818103600083015261456281614014565b9050919050565b6000602082019050818103600083015261458281614037565b9050919050565b600060208201905081810360008301526145a28161407d565b9050919050565b600060208201905081810360008301526145c2816140a0565b9050919050565b600060208201905081810360008301526145e2816140c3565b9050919050565b60006020820190508181036000830152614602816140e6565b9050919050565b6000602082019050818103600083015261462281614109565b9050919050565b600060208201905081810360008301526146428161412c565b9050919050565b6000602082019050818103600083015261466281614172565b9050919050565b6000602082019050818103600083015261468281614195565b9050919050565b600060208201905081810360008301526146a2816141b8565b9050919050565b600060208201905081810360008301526146c2816141db565b9050919050565b600060208201905081810360008301526146e2816141fe565b9050919050565b60006020820190506146fe6000830184614230565b92915050565b60006040820190506147196000830185614230565b6147266020830184613cc5565b9392505050565b6000614737614748565b90506147438282614a38565b919050565b6000604051905090565b600067ffffffffffffffff82111561476d5761476c614b70565b5b61477682614b9f565b9050602081019050919050565b600067ffffffffffffffff82111561479e5761479d614b70565b5b6147a782614b9f565b9050602081019050919050565b6000819050602082019050919050565b600081519050919050565b600081519050919050565b600081519050919050565b6000602082019050919050565b600082825260208201905092915050565b600082825260208201905092915050565b600081905092915050565b600082825260208201905092915050565b600081905092915050565b6000614846826149ba565b9150614851836149ba565b9250827fffffffffffffffffffffffffffffffffffffffffffffffffffffffffffffffff0382111561488657614885614ae3565b5b828201905092915050565b600061489c826149ba565b91506148a7836149ba565b9250826148b7576148b6614b12565b5b828204905092915050565b60006148cd826149ba565b91506148d8836149ba565b9250817fffffffffffffffffffffffffffffffffffffffffffffffffffffffffffffffff048311821515161561491157614910614ae3565b5b828202905092915050565b6000614927826149ba565b9150614932836149ba565b92508282101561494557614944614ae3565b5b828203905092915050565b600061495b8261499a565b9050919050565b60008115159050919050565b60007fffffffff0000000000000000000000000000000000000000000000000000000082169050919050565b600073ffffffffffffffffffffffffffffffffffffffff82169050919050565b6000819050919050565b82818337600083830152505050565b60005b838110156149f15780820151818401526020810190506149d6565b83811115614a00576000848401525b50505050565b60006002820490506001821680614a1e57607f821691505b60208210811415614a3257614a31614b41565b5b50919050565b614a4182614b9f565b810181811067ffffffffffffffff82111715614a6057614a5f614b70565b5b80604052505050565b6000614a74826149ba565b91507fffffffffffffffffffffffffffffffffffffffffffffffffffffffffffffffff821415614aa757614aa6614ae3565b5b600182019050919050565b6000614abd826149ba565b9150614ac8836149ba565b925082614ad857614ad7614b12565b5b828206905092915050565b7f4e487b7100000000000000000000000000000000000000000000000000000000600052601160045260246000fd5b7f4e487b7100000000000000000000000000000000000000000000000000000000600052601260045260246000fd5b7f4e487b7100000000000000000000000000000000000000000000000000000000600052602260045260246000fd5b7f4e487b7100000000000000000000000000000000000000000000000000000000600052604160045260246000fd5b6000601f19601f8301169050919050565b7f43616e206f6e6c79206d696e74206f6e65206f72206d6f726520746f6b656e7360008201527f20617420612074696d6500000000000000000000000000000000000000000000602082015250565b7f455243373231456e756d657261626c653a206f776e657220696e646578206f7560008201527f74206f6620626f756e6473000000000000000000000000000000000000000000602082015250565b7f4552433732313a207472616e7366657220746f206e6f6e20455243373231526560008201527f63656976657220696d706c656d656e7465720000000000000000000000000000602082015250565b7f4f776e61626c653a206e6577206f776e657220697320746865207a65726f206160008201527f6464726573730000000000000000000000000000000000000000000000000000602082015250565b7f4552433732313a20746f6b656e20616c7265616479206d696e74656400000000600082015250565b7f596f7520617265206e6f74206f6e207468652050726573616c65204c69737400600082015250565b7f53616c65206d7573742062652061637469766520746f206d696e7420546f6b6560008201527f6e00000000000000000000000000000000000000000000000000000000000000602082015250565b7f4e6f7420656e6f7567682072657365727665206c65667420666f72207465616d600082015250565b7f4552433732313a207472616e7366657220746f20746865207a65726f2061646460008201527f7265737300000000000000000000000000000000000000000000000000000000602082015250565b7f4552433732313a20617070726f766520746f2063616c6c657200000000000000600082015250565b7f45746865722076616c75652073656e74206973206e6f7420636f727265637400600082015250565b7f4552433732313a206f70657261746f7220717565727920666f72206e6f6e657860008201527f697374656e7420746f6b656e0000000000000000000000000000000000000000602082015250565b7f4552433732313a20617070726f76652063616c6c6572206973206e6f74206f7760008201527f6e6572206e6f7220617070726f76656420666f7220616c6c0000000000000000602082015250565b7f4552433732313a2062616c616e636520717565727920666f7220746865207a6560008201527f726f206164647265737300000000000000000000000000000000000000000000602082015250565b7f4552433732313a206f776e657220717565727920666f72206e6f6e657869737460008201527f656e7420746f6b656e0000000000000000000000000000000000000000000000602082015250565b7f507572636861736520776f756c6420657863656564206d617820737570706c7960008201527f206f6620746f6b656e7300000000000000000000000000000000000000000000602082015250565b7f4552433732313a206d696e7420746f20746865207a65726f2061646472657373600082015250565b7f4552433732313a20617070726f76656420717565727920666f72206e6f6e657860008201527f697374656e7420746f6b656e0000000000000000000000000000000000000000602082015250565b7f2e6a736f6e000000000000000000000000000000000000000000000000000000600082015250565b7f4f776e61626c653a2063616c6c6572206973206e6f7420746865206f776e6572600082015250565b7f43616e27742061646420746865206e756c6c2061646472657373000000000000600082015250565b7f507572636861736520776f756c6420657863656564206d617820737570706c7960008201527f206f6620746f6b656e0000000000000000000000000000000000000000000000602082015250565b7f4552433732313a207472616e73666572206f6620746f6b656e2074686174206960008201527f73206e6f74206f776e0000000000000000000000000000000000000000000000602082015250565b7f4552433732314d657461646174613a2055524920717565727920666f72206e6f60008201527f6e6578697374656e7420746f6b656e0000000000000000000000000000000000602082015250565b7f4552433732313a20617070726f76616c20746f2063757272656e74206f776e6560008201527f7200000000000000000000000000000000000000000000000000000000000000602082015250565b50565b7f4552433732313a207472616e736665722063616c6c6572206973206e6f74206f60008201527f776e6572206e6f7220617070726f766564000000000000000000000000000000602082015250565b7f455243373231456e756d657261626c653a20676c6f62616c20696e646578206f60008201527f7574206f6620626f756e64730000000000000000000000000000000000000000602082015250565b7f50726573616c65206973206e6f74206163746976650000000000000000000000600082015250565b7f50757263686173652065786365656473206d617820616c6c6f77656400000000600082015250565b7f43616e6e6f742070757263686173652074686973206d616e7920746f6b656e73600082015250565b61533681614950565b811461534157600080fd5b50565b61534d81614962565b811461535857600080fd5b50565b6153648161496e565b811461536f57600080fd5b50565b61537b816149ba565b811461538657600080fd5b5056fe697066733a2f2f516d5947417033477a316d35556d466856345056525250594533484c31416d4377454b4650786e673439387666622f68696464656e2e6a736f6ea26469706673582212208bb71bd98d84a3e43ffbb976abecedd18fbe288d5ee2d2c991ea6528948fabe564736f6c63430008040033",
  "linkReferences": {},
  "deployedLinkReferences": {}
}